:100000000C942A000C9449000C9447000C9447006F
:100010000C9447000C9447000C9447000C94470044
:100020000C9447000C9447000C9447000C94470034
:100030000C9447000C9447000C9447000C94470024
:100040000C9447000C9447000C9447000C94470014
:100050000C94470011241FBECFE5D8E0DEBFCDBF12
:1000600010E0A0E6B0E0EAEBF2E002C005900D92ED
:10007000A03BB107D9F720E0A0EBB0E001C01D9292
:10008000A13BB207E1F70E944F000C945B010C9476
:1000900000008F9381E08093B0008F911895B89AFB
:1000A000C09A8A98929A85B7826085BF85B78E7FFD
:1000B00085BF8AB780648ABF8BB780648BBF789412
:1000C0000E94F70060E080E00E94470180E690E037
:1000D0000E9414014EE650E063E081E00E9424019A
:1000E000C1E019C09FEF28E08DE39150204080408F
:1000F000E1F700C0000060E080E00E9447018EE967
:1001000090E00E9414014EE650E063E08C2F0E94C4
:1001100024011092B0008091B0008115E1F387E8CE
:1001200093E10197F1F700C000008299F4CF88B302
:100130008C2788BB4CE750E060E080E00E942401FF
:100140004DE850E060E08C2F0E9424018299CACFD4
:1001500087E893E10197F1F700C00000829BF8CF98
:10016000C1CF95B39F70282F207F922B95BBAA9863
:10017000A89A94E09A95F1F7A898E8E2F2E031970E
:10018000F1F700C0000095B38295807F9F70892BA6
:1001900085BBA89AF4E0FA95F1F7A89889E995E16A
:1001A0000197F1F700C0089595B39F70282F207F25
:1001B000922B95BBAA9AA89A94E09A95F1F7A898E1
:1001C000E8E2F2E03197F1F700C0000095B38295C4
:1001D000807F9F70892B85BBA89AF4E0FA95F1F790
:1001E000A89889E995E10197F1F700C008958FEF8C
:1001F00084BB8FEF97ED0197F1F700C0000082E01C
:100200000E94B10088E20E94B1008CE00E94B1001F
:1002100086E00E94B10081E00E94B10089E995E189
:100220000197F1F700C00895CF93DF93C82FD92F1E
:100230008881811531F021960E94D4008991811125
:10024000FBCFDF91CF910895CF93DF9300D0CDB74F
:10025000DEB749835A83813088F4603148F0898160
:100260009A810E9414010F900F90DF91CF91089511
:100270006F70862F80680E94B100F1CF81F76031E6
:1002800070F76F70862F806C0E94B100E8CF8130CC
:1002900048F4603108F00895862F8F7080680E94BE
:1002A000B1000895C1F76031B0F7862F8F70806C70
:0A02B0000E94B1000895F894FFCFFA
:1002BA0057656C6C2048656C6C6F20546F00456DF7
:1002CA00626564646564205379732E0042757474A0
:1002DA006F6E2050726573736564212000202020A0
:1002EA0020202020202020202020202020005765A8
:1002FA006C6C2048656C6C6F20546F2020200000C5
:00000001FF
