:100000000C942A000C9447000C9447000C94470071
:100010000C9447000C9447000C9447000C94470044
:100020000C9447000C9447000C9447000C94470034
:100030000C9447000C9447000C9447000C94470024
:100040000C9447000C9447000C9447000C94470014
:100050000C94470011241FBECFE5D8E0DEBFCDBF12
:1000600011E0A0E6B0E0ECE2FDE002C005900D92E8
:10007000AE3AB107D9F721E0AEEAB1E001C01D9276
:10008000A43BB207E1F70E947F000C9494060C9405
:1000900000005F9BFECF8CB190E008955D9BFECF8A
:1000A0008CB980E090E008959B01AC01220F331FD2
:1000B000441F551F220F331F441F551F220F331F8C
:1000C000441F551F220F331F441F551F60E070EC63
:1000D00088EA90E00E945C038FEF820F89B921507B
:1000E000310941095109232F342F452F552720BDB0
:1000F0008AB188618AB980B5866880BD089588E034
:1001000087BB18BA80E881BB8CE683BF12BE80E44F
:100110008CBF12BC8FE185BD14BC87ED83BD19BEB9
:1001200060E875E280E090E00E945400EEEAF1E0C1
:1001300080E690E093838283918380838EE690E0D3
:100140000E9494038AE990E00E94940382EC90E07C
:100150000E9494031FBC1DBC1CBC92E480E222E000
:100160009EBD88BF08B605FEFDCF06B517B52EBDEE
:1001700088BF08B605FEFDCFC6B5D7B59EBD88BF02
:1001800008B605FEFDCFE6B4F7B41EBC88BFC017A5
:10019000D10730F3EC16FD0618F3BE01601B710B9E
:1001A00080E090E00E946102962E872E782E692EC4
:1001B000B7016C1B7D0B80E090E00E946102562E1F
:1001C000472E382E292E262F372F482F592F692DAD
:1001D000782D872D962D0E948301C62ED72EB82EFE
:1001E000A92E8EEE90E00E949403FF92EF92DF938F
:1001F000CF931F930F9383E091E09F938F930E947F
:100200007E038DE191E00E94940320E030EC48EA07
:1002100059E4692D782D872D962D0E94EF019F932B
:100220008F937F936F938AE391E09F938F930E94C4
:100230007E0320E030EC48EA59E4652D742D832DCF
:10024000922D0E94EF019F938F937F936F9383E58D
:1002500091E09F938F930E947E0320E030EC48EA68
:1002600059E46C2D7D2D8B2D9A2D0E94EF019F93CB
:100270008F937F936F938CE691E09F938F930E946F
:100280007E032C2D3D2D4B2D5A2D60E070EC88EA1D
:1002900099E40E94EF019F938F937F936F9385E87A
:1002A00091E09F938F930E947E038DB79EB78096B7
:1002B0000FB6F8949EBF0FBE8DBF2C2D3D2D4B2D3C
:1002C0005A2D692D782D872D962D0E94EF0120E063
:1002D00030E048EC52E40E94EF029F938F937F93AB
:1002E0006F9389E991E09F938F930E947E038EE63E
:1002F00090E00E9494030F900F900F900F900F903A
:100300000F90FFCF5058BB27AA270E949A010C9448
:10031000B5020E94A70238F00E94AE0220F039F424
:100320009F3F19F426F40C94A4020EF4E095E7FB29
:100330000C949E02E92F0E94C60258F3BA17620776
:1003400073078407950720F079F4A6F50C94E8026A
:100350000EF4E0950B2EBA2FA02D0B01B9019001E0
:100360000C01CA01A0011124FF27591B99F0593F24
:1003700050F4503E68F11A16F040A22F232F342F6C
:100380004427585FF3CF469537952795A795F040BA
:100390005395C9F77EF41F16BA0B620B730B840BCF
:1003A000BAF09150A1F0FF0FBB1F661F771F881F87
:1003B000C2F70EC0BA0F621F731F841F48F48795DF
:1003C00077956795B795F7959E3F08F0B0CF9395D1
:1003D000880F08F09927EE0F9795879508950E944A
:1003E00003020C94B5020E94AE0258F00E94A702CC
:1003F00040F029F45F3F29F00C949E0251110C94B7
:10040000E9020C94A4020E94C60268F39923B1F396
:10041000552391F3951B550BBB27AA27621773072A
:10042000840738F09F5F5F4F220F331F441FAA1FBE
:10043000A9F335D00E2E3AF0E0E832D0915050407A
:10044000E695001CCAF72BD0FE2F29D0660F771F28
:10045000881FBB1F261737074807AB07B0E809F00E
:10046000BB0B802DBF01FF2793585F4F3AF09E3F93
:10047000510578F00C949E020C94E9025F3FE4F37E
:10048000983ED4F3869577956795B795F7959F5FD6
:10049000C9F7880F911D9695879597F90895E1E022
:1004A000660F771F881FBB1F621773078407BA0781
:1004B00020F0621B730B840BBA0BEE1F88F7E095DC
:1004C0000895E89409C097FB3EF490958095709547
:1004D00061957F4F8F4F9F4F9923A9F0F92F96E990
:1004E000BB279395F695879577956795B795F11105
:1004F000F8CFFAF4BB0F11F460FF1BC06F5F7F4FA2
:100500008F4F9F4F16C0882311F096E911C07723B3
:1005100021F09EE8872F762F05C0662371F096E8BC
:10052000862F70E060E02AF09A95660F771F881F8B
:10053000DAF7880F9695879597F9089597F99F6749
:1005400080E870E060E008959FEF80EC089500245B
:100550000A941616170618060906089500240A9428
:1005600012161306140605060895092E0394000CAE
:1005700011F4882352F0BB0F40F4BF2B11F460FF3D
:1005800004C06F5F7F4F8F4F9F4F089557FD905866
:10059000440F551F59F05F3F71F04795880F97FB47
:1005A000991F61F09F3F79F0879508951216130601
:1005B0001406551FF2CF4695F1DF08C01616170630
:1005C0001806991FF1CF8695710561050894089565
:1005D000E894BB2766277727CB0197F908950E94F7
:1005E00002030C94B5020E94A70238F00E94AE02EA
:1005F00020F0952311F00C949E020C94A402112477
:100600000C94E9020E94C60270F3959FC1F3950F06
:1006100050E0551F629FF001729FBB27F00DB11D86
:10062000639FAA27F00DB11DAA1F649F6627B00D16
:10063000A11D661F829F2227B00DA11D621F739FFF
:10064000B00DA11D621F839FA00D611D221F749F0D
:100650003327A00D611D231F849F600D211D822F54
:10066000762F6A2F11249F5750409AF0F1F088237B
:100670004AF0EE0FFF1FBB1F661F771F881F9150A8
:100680005040A9F79E3F510580F00C949E020C94B7
:10069000E9025F3FE4F3983ED4F38695779567953A
:1006A000B795F795E7959F5FC1F7FE2B880F911DD2
:1006B0009695879597F90895A1E21A2EAA1BBB1B60
:1006C000FD010DC0AA1FBB1FEE1FFF1FA217B3071E
:1006D000E407F50720F0A21BB30BE40BF50B661F34
:1006E000771F881F991F1A9469F7609570958095F8
:1006F00090959B01AC01BD01CF010895A0E0B0E051
:10070000E4E8F3E00C946D06AE014B5F5F4FFA0135
:1007100061917191AF018091B0019091B1010E94FE
:10072000C003E2E00C9489060F931F93CF93DF93ED
:10073000E091B001F091B1012381EC0100E010E003
:1007400021FD0EC00FEF1FEFC801DF91CF911F9168
:100750000F91089521960995892B11F00FEF1FEF46
:1007600088816091B0017091B101DB011896ED9123
:10077000FD918111EFCF8AE00995892B29F3E2CF12
:10078000ABE0B0E0E6ECF3E00C9460066C017B01BA
:100790008A01FC0116821782838181FFDFC13AE062
:1007A000532EF6012381F70123FD859123FF8191CB
:1007B0007F01811509F437C1853239F423FD959104
:1007C00023FF91917F01953229F4B60190E00E94B8
:1007D000C705E7CF30E0912C612C712CF0E27F1639
:1007E00040F59B32D9F058F49032D1F09332F1F0C9
:1007F0009E3291F576FC17C1689476F806C09D325A
:1008000091F09033C1F4689470F8F70123FD95914D
:1008100023FF91917F019111E1CF28C0689471F875
:10082000689472F8F2CF689473F8EFCF689474F814
:10083000ECCF77FC1BC080ED890F8A30C8F676FEBE
:1008400005C0959C800D1124982EDFCF659C800DEE
:100850001124682E7F2AD9CF9C3619F4689477F832
:10086000D4CF9C3409F445C0983679F2892F8F7D16
:100870008554833008F43FC0933609F461C0933740
:1008800009F46BC0933509F477C0943619F09936A2
:1008900009F0A4C0F80177FE9AC06191719181912D
:1008A00091918F01272D2F76822E97FF04C00E94F1
:1008B0005506689487F82AE030E05E014FEFA41AED
:1008C000B40AA5010E94F705782E7A1886FECFC0DB
:1008D000882D8E7F791408F0C9C084FE1DC182FC6A
:1008E00011C12EEE8222B92C882D867809F4CBC056
:1008F0000EC131E08ACF311501F1085F1F4F8FE340
:10090000898321E0822E912C5E012FEFA21AB20A78
:10091000E89477F873FC03C086149104F0F1811415
:10092000910409F041C0611409F43BCFB60180E2A3
:1009300090E00E94C7056A94F6CF0C5F1F4FDFCF8F
:10094000F801808189830E5F1F4F91E0892E912CE1
:100950005E01FFEFAF1ABF0ADBCFF801A190B190A3
:100960008F01692D70E076FC02C06FEF7FEFC5014B
:100970000E94BC054C01CCCFF801A190B1908F0131
:10098000692D70E076FC02C06FEF7FEFC5010E9419
:10099000B1054C01689477F8BDCFB60180E290E0D4
:1009A0000E94C7056A94B8CFF50177FC859177FE60
:1009B00081915F01B60190E00E94C70581E061105E
:1009C00001C080E0681AF1E08F1A9108A8CF619108
:1009D0007191872F880F880B982F63CF9537C9F4B3
:1009E000872CE89484F82AE030E0F80187FE39C0CB
:1009F00061917191819191918F015E01FFEFAF1A29
:100A0000BF0AA5010E94F705782E7A18E89487F8A6
:100A10005DCF872D897F882E903799F058F49835CF
:100A2000A9F09F36D9F0F601868197812B96EFE0E9
:100A30000C947C069837B9F774FC05C020E130E0CF
:100A4000D4CF689484F8689482F8F8CF74FE03C019
:100A5000E72DE6608E2E20E132E0C7CF28E030E0BF
:100A6000C4CF6191719180E090E0C6CF882EB72C01
:100A700084FE3ACFFE01E70DF11D8081803309F03D
:100A800044C049EE842283FC0EC080FE51C0972CE6
:100A9000B61418F4960C9B18B62C862D8B196B1473
:100AA00008F480E0B80EB61408F044C06B1884FE59
:100AB00043C0B60180E390E00E94C70582FE09C0F2
:100AC00088E590E081FC02C088E790E0B6010E94D2
:100AD000C7057914E0F15E018FEFA81AB80A7A947D
:100AE00082E0882E912C8C0E9D1E870C911CF401A7
:100AF00082914F01B60190E00E94C7058A149B04C1
:100B0000B1F711CFB92C882EB5CF82FC02C0B394B7
:100B1000BACFB394B394B7CFB92C882EE5CEB60133
:100B200080E290E00E94C705A394A614C0F3B5CF5D
:100B3000AB2CFBCF612CBBCF882D867851F280E2A5
:100B400081FC8BE287FC8DE2B60190E0C0CFB6015C
:100B500080E390E00E94C7059A94BBCF8FEF9FEF90
:100B600065CFFC010590615070400110D8F7809569
:100B700090958E0F9F1F0895FC0161507040019069
:100B80000110D8F7809590958E0F9F1F08950F93B1
:100B90001F93CF93DF93182F092FEB018B8181FDDA
:100BA00009C00FEF1FEF812F902FDF91CF911F9181
:100BB0000F91089582FF14C02E813F818C819D8109
:100BC000281739073CF4E881F981CF010196888321
:100BD000998310838E819F8101968E839F83E3CFBB
:100BE000E885F985812F0995892BA1F3DACFFA01E0
:100BF000AA27283051F1203181F1E8946F936E7F5C
:100C00006E5F7F4F8F4F9F4FAF4FB1E03ED0B4E04C
:100C10003CD0670F781F891F9A1FA11D680F791F8D
:100C20008A1F911DA11D6A0F711D811D911DA11D9E
:100C300020D009F468943F912AE0269F11243019AE
:100C4000305D3193DEF6CF010895462F4770405D49
:100C50004193B3E00FD0C9F7F6CF462F4F70405DF8
:100C60004A3318F0495D31FD4052419302D0A9F753
:100C7000EACFB4E0A6959795879577956795BA954D
:100C8000C9F700976105710508959B01AC010A2E13
:100C900006945795479537952795BA95C9F7620FEA
:100CA000731F841F951FA01D0895909580957095C2
:100CB00061957F4F8F4F9F4F08952F923F924F9294
:100CC0005F926F927F928F929F92AF92BF92CF92DC
:100CD000DF92EF92FF920F931F93CF93DF93CDB7E5
:100CE000DEB7CA1BDB0B0FB6F894DEBF0FBECDBF5D
:100CF00009942A88398848885F846E847D848C842E
:100D00009B84AA84B984C884DF80EE80FD800C8136
:100D10001B81AA81B981CE0FD11D0FB6F894DEBF19
:0C0D20000FBECDBFED010895F894FFCF89
:100D2C0000000003000000004E00490000000D0A06
:100D3C003D3D3D3D3D3D3D3D3D3D3D3D3D3D3D3DD7
:100D4C003D3D3D3D3D3D3D3D3D3D3D3D3D3D3D3DC7
:100D5C003D3D3D3D3D3D3D3D0D0054696D65723160
:100D6C0020496E7075742043617074757265202D06
:100D7C002050574D204D6561737572656D656E74AD
:100D8C000D002D2D2D2D2D2D2D2D2D2D2D2D2D2DD4
:100D9C002D2D2D2D2D2D2D2D2D2D2D2D2D2D2D2D77
:100DAC002D2D2D2D2D2D2D2D2D2D0D0A0D0052619E
:100DBC007720436170747572652056616C7565732C
:100DCC003A0D00613A202575202020623A202575C5
:100DDC00202020633A2025750D0A0D0A004D65610F
:100DEC007375726564205369676E616C2050617213
:100DFC00616D65746572733A0D00486967682054BB
:100E0C00696D653A20202566207365636F6E647387
:100E1C000D0A004C6F772054696D653A202020250F
:100E2C0066207365636F6E64730D0A00506572699A
:100E3C006F643A20202020202566207365636F6E36
:100E4C0064730D0A004672657175656E63793A209C
:100E5C0020256620487A0D0A004475747920437960
:0E0E6C00636C653A2025662025250D0A0000DE
:00000001FF
