:100000000C942E000C944B000C944B000C944B0061
:100010000C944B000C944B000C944B000C944B0034
:100020000C944B000C94E6030C944B000C944B0086
:100030000C944B000C944B000C944B000C944B0014
:100040000C94D1030C944B000C944B000C944B007B
:100050000C944B006E616E00696E660011241FBE29
:10006000CFE5D8E0DEBFCDBF10E0A0E6B0E0E8EA23
:10007000F0E102C005900D92A037B107D9F720E05A
:10008000A0E7B0E001C01D92A838B207E1F70E94D6
:10009000EF030C94D5070C940000AFE0B0E0E3E56B
:1000A000F0E00C94FE057C013B015A01FC01168234
:1000B0001782838181FF51C39AE0292EF7012381A2
:1000C000F30123FD859123FF81913F01811509F4FF
:1000D00042C0853239F423FD959123FF91913F0170
:1000E000953239F4B70190E00E942307650156016B
:1000F000E5CF30E010E0812C912CF0E28F1608F073
:100100003CC09B3279F160F4903271F1933291F1FD
:100110009E3209F045C086FC1EC0689486F806C071
:100120009D3229F1903359F5689480F8F30123FD4D
:10013000959123FF91913F019111DFCF082D097F08
:10014000903709F481C208F077C2983509F47FC26C
:100150009F3609F483C2F701868197812F96E2E1E9
:100160000C941A06689481F8689482F8DFCF68943A
:1001700083F8DCCF689484F8D9CF87FC1BC080ED6E
:10018000890F8A3028F686FE05C0129D800D112445
:10019000182FCCCF929C800D1124982E8F2AC6CF79
:1001A0009C3619F4689487F8C1CF9C3409F19836CD
:1001B00009F4BCCF3115F1F0892F8F7D8554833040
:1001C00008F095C1650128E0C20ED11C8FE3898338
:1001D00001E010E05E013FEFA31AB30AE89487F84C
:1001E00083FC04C00915110508F4E8C1592CFEC1AF
:1001F00031E09CCF8BEB890F833090F4689484F8C6
:10020000905E86FE16E04FE38422953689F468946A
:1002100086F8212F183010F027E017E0412C14C089
:100220008BE9890F833008F062C1E89484F8E9CF44
:10023000963699F5689487F8812F1C3308F08BE384
:1002400044244394480E27E0F50161917191819116
:1002500091916F01042DAE014F5F5F4F0E943506F3
:100260005C013980832D89700DE2813029F082FA9A
:10027000002705F981FC0BE2F32DFC705F2EF115D0
:1002800041F133FA332433F801116AC224E0512CCE
:10029000921608F47CC283E068C220E0111509F4CC
:1002A000BDCF1150B6CF81108052B70190E00E94AF
:1002B00023070F5F1F4FF80184918111F4CF511470
:1002C00009F415CFB70180E290E00E9423075A9409
:1002D000F6CF87FE2FC0842D8A0D34FE04C09A818C
:1002E000913309F4815044244394181634F4482E71
:1002F000F9E08F1710F088E0482EC501B7FE02C064
:1003000080E090E0019601110196111531F0212F46
:1003100030E02F5F3F4F820F931F8915910514F432
:10032000592C581A882D8970A1F551102BC0011530
:10033000C9F131C086FC23C0E12FF0E01A151B047F
:100340003CF02CEFA2162FEFB20614F0689487F859
:10035000CE010396E80FF91F01C01150111519F0D5
:1003600082918033D1F387FE0AC044244394410E26
:10037000A116B10414F41A19C0CF10E0BECF85E065
:1003800090E0C1CFB70180E290E00E9423075A9429
:10039000CCCF011529F0B701802F90E00E942307F0
:1003A00083FC02C051103FC087FE56C04501B7FE16
:1003B00002C0812C912CCE0101968A0D9B1DFC015F
:1003C000E819F909EC87FD879501241931092E8771
:1003D0003F87012F10E0119501951109A814B90468
:1003E0004CF18E859F858815990524F5EC85FD8552
:1003F0008181F1E08F1A910880169106ECF02C852E
:100400003D852F5F3F4F2C873D87B70190E00E94CD
:1004100023073FEF8316980409F7B7018EE290E0B7
:100420000E942307DBCFB70180E390E00E942307FF
:100430005A94B8CF80E3DDCFA814B90431F49A817F
:10044000953318F039F434FE05C0B70190E00E94EE
:10045000230735CF81E3F9CF8A81813311F0E89406
:1004600034F8B70190E00E942307111124C085E4FD
:1004700090E084FC02C085E690E0B7010E9423076B
:10048000A114B1041CF061F534FE2AC0B194A1940A
:10049000B1088DE2B70190E00E94230780E39AE063
:1004A000A916B104FCF4B70190E00E942307B7013C
:1004B000C501C096CCCFB7018EE290E00E94230721
:1004C0001E5F02E0802F0F5FFE013196E80FF11DE5
:1004D0008081B70190E00E9423070113F3CFC7CFBB
:1004E0008BE2D8CF8F5F4AE0A41AB108D8CF9336F9
:1004F000B9F1933709F442C0933509F44EC09436EC
:1005000019F0993609F07EC0F50187FE73C061913C
:100510007191819191916F01082D0F7697FF03C022
:100520000E94F60500682AE030E05E01FFEFAF1A96
:10053000BF0AA5010E947707B82EBA1806FF98C017
:10054000802F8E7FB11608F092C004FFE4C002FD38
:10055000D8C00E7E512E802F867809F494C0D6C064
:100560006501E2E0CE0ED11CF5018081898301E0B6
:1005700010E05E01FFEFAF1ABF0A30CEF501A19087
:10058000B1906F01612F70E086FC02C06FEF7FEFCA
:10059000C5010E9418078C0121CEF501A190B190F0
:1005A0006F01612F70E086FC02C06FEF7FEFC50125
:1005B0000E940D078C01689487F812CEB70180E283
:1005C00090E00E9423079A940DCEF50187FC859157
:1005D00087FE81915F01B70190E00E94230781E0CF
:1005E000511001C080E0581A015011090115110580
:1005F00061F765CE619171916F01872F880F880B2C
:10060000982F8ACF953709F099CD082D0F7E2AE0D3
:1006100030E0F50107FF25C06191719181919191C1
:100620006F015E01FFEFAF1ABF0AA5010E947707B5
:10063000B82EBA180F7782CF983709F08CCD84FC8A
:1006400004C020E130E0E5CF00610460FACF84FE11
:1006500002C0082D066020E132E0DBCF28E030E068
:10066000D8CF619171916F0180E090E0DACF082FCF
:100670005B2C04FF70CFFE01EB0DF11D80818033F8
:1006800009F042C0097E03FD0EC000FF50C01B2DC3
:10069000591418F4190D1519592C892D851995140B
:1006A00008F480E0580E591408F043C09518592CEE
:1006B00004FF41C0B70180E390E00E94230702FFDE
:1006C00009C088E590E001FD02C088E790E0B7012D
:1006D0000E942307B116D0F18E010F5F1F4FBA940D
:1006E0009E012E5F3F4F2B0D311D5901F501829167
:1006F0005F01B70190E00E942307A016B106B1F791
:10070000DECD512E082FB7CF02FD02C05394BBCFD0
:1007100053945394B8CF512E082F1DCFB70180E2C8
:1007200090E00E942307A394A914C0F3B6CFA52C90
:10073000FBCF512CBDCF802F867861F280E201FD86
:100740008BE207FD8DE2B70190E0C2CFB70180E3F5
:1007500090E00E9423071150BDCF8FEF9FEFFECC9A
:10076000F5E0512C9F1670F084E0592C581A83FC48
:1007700007C0B70180E290E00E9423075A94C9F7AE
:10078000011529F0B701802F90E00E94230704E5AE
:1007900010E0311002C008E510E084FA882484F8E3
:1007A0008ACD8F938FB78F939F9384B195B1909398
:1007B00083008093820088B391E0892788BB90935F
:1007C00070009F918F918FBF8F9118958F939F93FA
:1007D00080ED95ED9DBD8CBD9F918F911895B89A38
:1007E000C09A1FBC85E08EBD85ED8DBD80ED8CBDB2
:1007F00088B7846088BF89B7846089BF83E087B980
:1008000086B18E6F86B980B7806C80BF0E949704D6
:1008100060E080E00E94E704789400E610E0C1E721
:10082000D0E0809170008115E1F3609182007091B9
:10083000830080E090E00E94FB0420E030E040EA8A
:1008400050E40E94380520E030E040E85AE30E947E
:100850003805262F372F462F572F682F792F409393
:1008600084005093850060938600709387009F9367
:100870008F933F932F931F930F93DF93CF930E94F8
:100880005307AE0160E081E00E94C4041092700042
:100890008DB79EB708960FB6F8949EBF0FBE8DBF5A
:1008A000C0CF95B39F70282F207F922B95BBAA981D
:1008B000A89A94E09A95F1F7A898E8E2F2E03197C7
:1008C000F1F700C0000095B38295807F9F70892B5F
:1008D00085BBA89AF4E0FA95F1F7A89889E995E123
:1008E0000197F1F700C0089595B39F70282F207FDE
:1008F000922B95BBAA9AA89A94E09A95F1F7A8989A
:10090000E8E2F2E03197F1F700C0000095B382957C
:10091000807F9F70892B85BBA89AF4E0FA95F1F748
:10092000A89889E995E10197F1F700C008958FEF44
:1009300084BB8FEF97ED0197F1F700C0000082E0D4
:100940000E94510488E20E9451048CE00E945104EC
:1009500086E00E94510481E00E94510489E995E1FA
:100960000197F1F700C00895CF93DF93C82FD92FD7
:100970008881811531F021960E947404899181113A
:10098000FBCFDF91CF910895CF93DF9300D0CDB708
:10099000DEB749835A83813088F4603148F0898119
:1009A0009A810E94B4040F900F90DF91CF91089527
:1009B0006F70862F80680E945104F1CF81F76031FB
:1009C00070F76F70862F806C0E945104E8CF8130E1
:1009D00048F4603108F00895862F8F7080680E9477
:1009E00051040895C1F76031B0F7862F8F70806C85
:1009F0000E9451040895E89409C097FB3EF4909535
:100A00008095709561957F4F8F4F9F4F9923A9F0E7
:100A1000F92F96E9BB279395F69587957795679576
:100A2000B795F111F8CFFAF4BB0F11F460FF1BC0BA
:100A30006F5F7F4F8F4F9F4F16C0882311F096E94D
:100A400011C0772321F09EE8872F762F05C06623FB
:100A500071F096E8862F70E060E02AF09A95660FB4
:100A6000771F881FDAF7880F9695879597F908956D
:100A70000E944B050C94BC050E94AE0538F00E9404
:100A8000B50520F0952311F00C94A5050C94AB0549
:100A900011240C94F0050E94CD0570F3959FC1F3CD
:100AA000950F50E0551F629FF001729FBB27F00D1C
:100AB000B11D639FAA27F00DB11DAA1F649F662771
:100AC000B00DA11D661F829F2227B00DA11D621FC0
:100AD000739FB00DA11D621F839FA00D611D221F7A
:100AE000749F3327A00D611D231F849F600D211D5E
:100AF000822F762F6A2F11249F5750409AF0F1F0E1
:100B000088234AF0EE0FFF1FBB1F661F771F881F49
:100B100091505040A9F79E3F510580F00C94A505D7
:100B20000C94F0055F3FE4F3983ED4F386957795F7
:100B30006795B795F795E7959F5FC1F7FE2B880FEF
:100B4000911D9695879597F9089597F99F6780E885
:100B500070E060E008959FEF80EC089500240A940F
:100B60001616170618060906089500240A94121688
:100B70001306140605060895092E0394000C11F4BB
:100B8000882352F0BB0F40F4BF2B11F460FF04C068
:100B90006F5F7F4F8F4F9F4F089557FD9058440FC1
:100BA000551F59F05F3F71F04795880F97FB991FCC
:100BB00061F09F3F79F08795089512161306140689
:100BC000551FF2CF4695F1DF08C016161706180616
:100BD000991FF1CF86957105610508940895E894F1
:100BE000BB2766277727CB0197F9089590958095C5
:100BF000709561957F4F8F4F9F4F08952F923F9231
:100C00004F925F926F927F928F929F92AF92BF921C
:100C1000CF92DF92EF92FF920F931F93CF93DF93C8
:100C2000CDB7DEB7CA1BDB0B0FB6F894DEBF0FBE25
:100C3000CDBF09942A88398848885F846E847D8472
:100C40008C849B84AA84B984C884DF80EE80FD8074
:100C50000C811B81AA81B981CE0FD11D0FB6F894EA
:100C6000DEBF0FBECDBFED010895283008F027E0AC
:100C70003327DA01990F311D87FD916000966105D8
:100C8000710539F432602E5F3D9330E32A95E1F728
:100C900008959F3F30F080387105610509F03C5F91
:100CA0003C5F3D93913008F08068911DDF93CF93B6
:100CB0001F930F93FF92EF92192F987F9695E92F2C
:100CC00096959695E90FFF27E85FFF4E9927332702
:100CD000EE24FF24A701E70105900894079428F467
:100CE000360FE71EF81E491F511D660F771F881F1C
:100CF000991F0694A1F70590079428F4E70EF81EB3
:100D0000491F561FC11D770F881F991F661F069424
:100D1000A1F70590079428F4F80E491F561FC71F26
:100D2000D11D880F991F661F771F0694A1F70590A4
:100D3000079420F4490F561FC71FD81F990F661F2D
:100D4000771F881F0694A9F784911095177041F0BA
:100D5000D695C79557954795F794E7941A95C1F797
:100D6000EEEAFFE0689415901591359165919591A3
:100D700005907FE27395E118F10A430B560BC90BFE
:100D8000D009C0F7E10CF11E431F561FC91FD01D2B
:100D90007EF4703311F48A95E6CFE894015030F078
:100DA000080F0AF40027021708F4202F2395022FBA
:100DB0007A3328F079E37D932A95E9F710C07D9383
:100DC0002A9589F606949795679537951795179400
:100DD000E118F10A430B560BC90BD00998F0239583
:100DE0007E9173957A3308F070E37C932013B8F703
:100DF0007E9170617D9330F0839571E37D9370E314
:100E00002A95E1F71124EF90FF900F911F91CF9158
:100E1000DF91992787FD90950895FC010590615019
:100E200070400110D8F7809590958E0F9F1F089500
:100E3000FC016150704001900110D8F780959095A9
:100E40008E0F9F1F08950F931F93CF93DF93182F3B
:100E5000092FEB018B8181FD09C00FEF1FEF812F5F
:100E6000902FDF91CF911F910F91089582FF14C0B1
:100E70002E813F818C819D81281739073CF4E881C0
:100E8000F981CF0101968883998310838E819F8198
:100E900001968E839F83E3CFE885F985812F09959D
:100EA000892BA1F3DACFAEE0B0E0E9E5F7E00C94EE
:100EB0000E0686E08C832B893C8929833A838FEF49
:100EC0009FE78D839E83AE01495E5F4F6D897E896A
:100ED000CE0101960E944D00EF81F8852B893C8957
:100EE000E20FF31F10822E96E2E00C942A06FA011C
:100EF000AA27283051F1203181F1E8946F936E7F59
:100F00006E5F7F4F8F4F9F4FAF4FB1E03ED0B4E049
:100F10003CD0670F781F891F9A1FA11D680F791F8A
:100F20008A1F911DA11D6A0F711D811D911DA11D9B
:100F300020D009F468943F912AE0269F11243019AB
:100F4000305D3193DEF6CF010895462F4770405D46
:100F50004193B3E00FD0C9F7F6CF462F4F70405DF5
:100F60004A3318F0495D31FD4052419302D0A9F750
:100F7000EACFB4E0A6959795879577956795BA954A
:100F8000C9F700976105710508959B01AC010A2E10
:100F900006945795479537952795BA95C9F7620FE7
:100FA000731F841F951FA01D0895F894FFCF004064
:100FB0007A10F35A00A0724E18090010A5D4E80068
:100FC00000E87648170000E40B54020000CA9A3B80
:100FD000000000E1F5050000809698000000404206
:100FE0000F000000A0860100000010270000000094
:100FF000E803000000006400000000000A00000098
:1010000000000100000000002C76D888DC674F0843
:1010100023DFC1DFAE59E1B1B796E5E3E453C63A49
:10102000E651997696E8E6C28426EB898C9B62EDC0
:10103000407C6FFCEFBC9C9F40F2BAA56FA5F4907A
:10104000055A2AF75C936B6CF9676DC11BFCE0E4F1
:101050000D47FEF520E6B500D0ED902E0300943547
:1010600077050080841E080000204E0A000000C89A
:101070000C333333330F986E12831141EF8D2114EB
:10108000893BE65516CFFEE6DB18D1844B381BF7BB
:101090007C1D901DA4BBE424203284725E2281005A
:0810A000C9F124ECA1E53D2794
:1010A8004144433A2025312E346620202020560022
:00000001FF
