:100000000C942A000C943C000C943C000C943C0092
:100010000C943C000C943C000C943C000C943C0070
:100020000C943C000C943C000C943C000C943E005E
:100030000C943C000C943C000C943C000C943C0050
:100040000C943C000C943C000C943C000C943C0040
:100050000C943C0011241FBECFE5D8E0DEBFCDBF1D
:1000600020E0A0E6B0E001C01D92A136B207E1F7A2
:100070000E945B000C9475000C9400001F921FB648
:100080001F9211248F939F9384E982BF8091600017
:100090008F5F8093600080916000843630F0109212
:1000A000600088B391E0892788BB9F918F911F9052
:1000B0001FBE1F901895B89AC09885E083BF84E949
:1000C00082BF1CBE81E088BF89BF81B3806A81BBCB
:1000D00080E48FBD9DE09EBD2FE23AE23BBD2ABD8C
:0E00E0009CE695BD83BD7894FFCFF894FFCFCA
:00000001FF
