:100000000C942A000C9434000C9434000C943400AA
:100010000C9434000C9434000C9434000C94340090
:100020000C9434000C9434000C9434000C94340080
:100030000C9434000C9434000C9434000C94340070
:100040000C9434000C9434000C9434000C94340060
:100050000C94340011241FBECFE5D8E0DEBFCDBF25
:100060000E9460000C94BC000C940000611539F1F2
:1000700021E030E0A90102C0440F551F8A95E2F744
:10008000342F3095242F90E088B3832388BB5FEF13
:100090008FEB46E0515080404040E1F700C0000047
:1000A00088B3822B88BB5FEF8FEB46E051508040D6
:1000B0004040E1F700C000009F5F6913E5CF08955D
:1000C00094B784B7877F84BF0FB6F894A89581B59D
:1000D000886181BD11BC0FBE87B3836087BB88B3C5
:1000E000836088BB8A98929A93FF41C065E081E063
:1000F0000E9436002FEF3FED80E1215030408040DC
:10010000E1F700C0000088E19FE00FB6F894A895E1
:1001100081BD0FBE91BDC09891E0A89588B3892795
:1001200088BB2FEF3FED80E1215030408040E1F768
:1001300000C000008299F1CF2FEF3FEA81E021500B
:1001400030408040E1F700C000008299E6CFC09ABD
:10015000C19891E088B3892788BB2FEF3FE583E002
:10016000215030408040E1F700C00000F3CF63E051
:0C01700080E00E943600BECFF894FFCF64
:00000001FF
