:100000000C942A000C943E000C943C000C94440088
:100010000C943C000C943C000C943C000C943C0070
:100020000C943C000C943C000C943C000C943C0060
:100030000C943C000C943C000C943C000C943C0050
:100040000C943C000C943C000C943C000C943C0040
:100050000C943C0011241FBECFE5D8E0DEBFCDBF1D
:1000600020E0A0E6B0E001C01D92A336B207E1F7A0
:100070000E944A000C94C6000C9400008F9381E00B
:10008000809361008F9118958F9381E08093600039
:100090008F9118958A98929ABA98B89AC09AB99AF4
:1000A000C19A85B7826085BF85B78E7F85BF8AB7C5
:1000B00080648ABF8BB780648BBF84B7806484BF41
:1000C0008AB780628ABF8BB780628BBF789491E0D9
:1000D00022E015C0FFEF3FEA41E0F15030404040E0
:1000E000E1F700C00000C09AC19A1092620010921D
:1000F00061001092600080916100811117C08091B1
:1001000060008115C1F3EFEFF7ED3197F1F700C013
:100110000000B299E8CFB299DDCFEFEFF7ED31975C
:10012000F1F700C00000B29BF8CFD4CFEFEFF7EDAE
:100130003197F1F700C0000082991FC088B389276A
:1001400088BB809162008F5F809362008091620023
:100150008A30B1F0829908C0EFEFF7ED3197F1F7EF
:1001600000C00000829BF8CFFFEF3FEA41E0F15072
:1001700030404040E1F700C0000010926100BFCF66
:1001800088B3822788BB10926200E4CFF894FFCF37
:00000001FF
