:100000000C942E000C94DC030C944B000C94E20333
:100010000C944B000C944B000C944B000C944B0034
:100020000C944B000C944B000C944B000C944B0024
:100030000C944B000C944B000C944B000C944B0014
:100040000C944B000C944B000C944B000C944B0004
:100050000C944B006E616E00696E660011241FBE29
:10006000CFE5D8E0DEBFCDBF11E0A0E6B0E0EEE323
:10007000F2E102C005900D92AA31B107D9F721E053
:10008000AAE1B1E001C01D92AC33B207E1F70E94D2
:10009000C8040C94A0080C940000AFE0B0E0E3E5C5
:1000A000F0E00C9487067C013B015A01FC011682AA
:1000B0001782838181FF51C39AE0292EF7012381A2
:1000C000F30123FD859123FF81913F01811509F4FF
:1000D00042C0853239F423FD959123FF91913F0170
:1000E000953239F4B70190E00E94AC0765015601E2
:1000F000E5CF30E010E0812C912CF0E28F1608F073
:100100003CC09B3279F160F4903271F1933291F1FD
:100110009E3209F045C086FC1EC0689486F806C071
:100120009D3229F1903359F5689480F8F30123FD4D
:10013000959123FF91913F019111DFCF082D097F08
:10014000903709F481C208F077C2983509F47FC26C
:100150009F3609F483C2F701868197812F96E2E1E9
:100160000C94A306689481F8689482F8DFCF6894B1
:1001700083F8DCCF689484F8D9CF87FC1BC080ED6E
:10018000890F8A3028F686FE05C0129D800D112445
:10019000182FCCCF929C800D1124982E8F2AC6CF79
:1001A0009C3619F4689487F8C1CF9C3409F19836CD
:1001B00009F4BCCF3115F1F0892F8F7D8554833040
:1001C00008F095C1650128E0C20ED11C8FE3898338
:1001D00001E010E05E013FEFA31AB30AE89487F84C
:1001E00083FC04C00915110508F4E8C1592CFEC1AF
:1001F00031E09CCF8BEB890F833090F4689484F8C6
:10020000905E86FE16E04FE38422953689F468946A
:1002100086F8212F183010F027E017E0412C14C089
:100220008BE9890F833008F062C1E89484F8E9CF44
:10023000963699F5689487F8812F1C3308F08BE384
:1002400044244394480E27E0F50161917191819116
:1002500091916F01042DAE014F5F5F4F0E94BE066A
:100260005C013980832D89700DE2813029F082FA9A
:10027000002705F981FC0BE2F32DFC705F2EF115D0
:1002800041F133FA332433F801116AC224E0512CCE
:10029000921608F47CC283E068C220E0111509F4CC
:1002A000BDCF1150B6CF81108052B70190E00E94AF
:1002B000AC070F5F1F4FF80184918111F4CF5114E7
:1002C00009F415CFB70180E290E00E94AC075A9480
:1002D000F6CF87FE2FC0842D8A0D34FE04C09A818C
:1002E000913309F4815044244394181634F4482E71
:1002F000F9E08F1710F088E0482EC501B7FE02C064
:1003000080E090E0019601110196111531F0212F46
:1003100030E02F5F3F4F820F931F8915910514F432
:10032000592C581A882D8970A1F551102BC0011530
:10033000C9F131C086FC23C0E12FF0E01A151B047F
:100340003CF02CEFA2162FEFB20614F0689487F859
:10035000CE010396E80FF91F01C01150111519F0D5
:1003600082918033D1F387FE0AC044244394410E26
:10037000A116B10414F41A19C0CF10E0BECF85E065
:1003800090E0C1CFB70180E290E00E94AC075A94A0
:10039000CCCF011529F0B701802F90E00E94AC0767
:1003A00083FC02C051103FC087FE56C04501B7FE16
:1003B00002C0812C912CCE0101968A0D9B1DFC015F
:1003C000E819F909EC87FD879501241931092E8771
:1003D0003F87012F10E0119501951109A814B90468
:1003E0004CF18E859F858815990524F5EC85FD8552
:1003F0008181F1E08F1A910880169106ECF02C852E
:100400003D852F5F3F4F2C873D87B70190E00E94CD
:10041000AC073FEF8316980409F7B7018EE290E02E
:100420000E94AC07DBCFB70180E390E00E94AC07ED
:100430005A94B8CF80E3DDCFA814B90431F49A817F
:10044000953318F039F434FE05C0B70190E00E94EE
:10045000AC0735CF81E3F9CF8A81813311F0E8947D
:1004600034F8B70190E00E94AC07111124C085E474
:1004700090E084FC02C085E690E0B7010E94AC07E2
:10048000A114B1041CF061F534FE2AC0B194A1940A
:10049000B1088DE2B70190E00E94AC0780E39AE0DA
:1004A000A916B104FCF4B70190E00E94AC07B701B3
:1004B000C501C096CCCFB7018EE290E00E94AC0798
:1004C0001E5F02E0802F0F5FFE013196E80FF11DE5
:1004D0008081B70190E00E94AC070113F3CFC7CF32
:1004E0008BE2D8CF8F5F4AE0A41AB108D8CF9336F9
:1004F000B9F1933709F442C0933509F44EC09436EC
:1005000019F0993609F07EC0F50187FE73C061913C
:100510007191819191916F01082D0F7697FF03C022
:100520000E947F0600682AE030E05E01FFEFAF1A0C
:10053000BF0AA5010E944208B82EBA1806FF98C04B
:10054000802F8E7FB11608F092C004FFE4C002FD38
:10055000D8C00E7E512E802F867809F494C0D6C064
:100560006501E2E0CE0ED11CF5018081898301E0B6
:1005700010E05E01FFEFAF1ABF0A30CEF501A19087
:10058000B1906F01612F70E086FC02C06FEF7FEFCA
:10059000C5010E94A1078C0121CEF501A190B19067
:1005A0006F01612F70E086FC02C06FEF7FEFC50125
:1005B0000E9496078C01689487F812CEB70180E2FA
:1005C00090E00E94AC079A940DCEF50187FC8591CE
:1005D00087FE81915F01B70190E00E94AC0781E046
:1005E000511001C080E0581A015011090115110580
:1005F00061F765CE619171916F01872F880F880B2C
:10060000982F8ACF953709F099CD082D0F7E2AE0D3
:1006100030E0F50107FF25C06191719181919191C1
:100620006F015E01FFEFAF1ABF0AA5010E944208E9
:10063000B82EBA180F7782CF983709F08CCD84FC8A
:1006400004C020E130E0E5CF00610460FACF84FE11
:1006500002C0082D066020E132E0DBCF28E030E068
:10066000D8CF619171916F0180E090E0DACF082FCF
:100670005B2C04FF70CFFE01EB0DF11D80818033F8
:1006800009F042C0097E03FD0EC000FF50C01B2DC3
:10069000591418F4190D1519592C892D851995140B
:1006A00008F480E0580E591408F043C09518592CEE
:1006B00004FF41C0B70180E390E00E94AC0702FF55
:1006C00009C088E590E001FD02C088E790E0B7012D
:1006D0000E94AC07B116D0F18E010F5F1F4FBA9484
:1006E0009E012E5F3F4F2B0D311D5901F501829167
:1006F0005F01B70190E00E94AC07A016B106B1F708
:10070000DECD512E082FB7CF02FD02C05394BBCFD0
:1007100053945394B8CF512E082F1DCFB70180E2C8
:1007200090E00E94AC07A394A914C0F3B6CFA52C07
:10073000FBCF512CBDCF802F867861F280E201FD86
:100740008BE207FD8DE2B70190E0C2CFB70180E3F5
:1007500090E00E94AC071150BDCF8FEF9FEFFECC11
:10076000F5E0512C9F1670F084E0592C581A83FC48
:1007700007C0B70180E290E00E94AC075A94C9F725
:10078000011529F0B701802F90E00E94AC0704E525
:1007900010E0311002C008E510E084FA882484F8E3
:1007A0008ACD5F9BFECF8CB190E008955D9BFECF1C
:1007B0008CB980E090E008958F9381E080933B01B5
:1007C0008F9118958F9381E080933A018F911895BE
:1007D000369A349BFECF349A84B195B19093390107
:1007E0008093380120916E0030916F00821793073B
:1007F00008F44BC086E790E09F938F9380E291E0EE
:100800009F938F930E941E0880916F008F93809119
:100810006E008F9380E291E09F938F938CE790E03E
:100820009F938F9385E291E09F938F930E941E0880
:10083000C19AC0988DB79EB70C960FB6F8949EBF1C
:100840000FBE8DBF45E251E060E080E00E943A06B5
:10085000809139018F93809138018F9380E990E0E6
:100860009F938F9385E291E09F938F930E941E0840
:1008700045E251E060E081E00E943A060F900F905F
:100880000F900F900F900F9008958AE890E09F933B
:100890008F9380E291E09F938F930E941E08809136
:1008A0006F008F9380916E008F9380E291E09F9311
:1008B0008F938CE790E09F938F9385E291E09F93D5
:1008C0008F930E941E08C09AC1988DB79EB70C9650
:1008D0000FB6F8949EBF0FBE8DBFB4CF0E94E80341
:1008E00080E291E09F938F93809139018F93809163
:1008F00038018F9389E990E09F938F930E94DC07E2
:1009000080916F008F9380916E008F938DEA90E0BD
:100910009F938F930E94DC078DB79EB70A960FB600
:10092000F8949EBF0FBE8DBF08959B01AC01220FAE
:10093000331F441F551F220F331F441F551F220F03
:10094000331F441F551F220F331F441F551F60E0E4
:1009500070EC88EA90E00E945D068FEF820F89B903
:100960002150310941095109232F342F452F552793
:1009700020BD8AB188618AB980B5866880BD089536
:100980005F9B03C08CB190E008958FEF9FEF0895B7
:10099000929AC2988BB780668BBF85B7826085BFFD
:1009A00084B7806484BF8AB780668ABF83E087B9D2
:1009B00086B1866886B980B780BFB89AC09AB99A5E
:1009C000C19A60E875E280E090E00E949504EAE157
:1009D000F1E080E690E0938382839183808386ECCC
:1009E00090E00E94F20784ED90E00E94F20784E418
:1009F0008F9385E48F938DE58F938BE38F931F9275
:100A000088EA8F9380EC8F931F9285EF90E09F93FD
:100A10008F930E94DC070E940D060E946E0478945A
:100A20008DB79EB70A960FB6F8949EBF0FBE8DBFC6
:100A300012C0809174009091750090936F00809324
:100A40006E000E946E0480913B01811123C0809151
:100A50003A01811143C00E94C0048F7D8C3449F358
:100A60008D3469F0883479F780917000909171002D
:100A700090936F0080936E000E946E04E4CF80918B
:100A800072009091730090936F0080936E000E94AB
:100A90006E04D9CF9FEF2FEA81E091502040804033
:100AA000E1F700C00000829B16C0829908C08FEF5A
:100AB0009BE60197F1F700C00000829BF8CF9FEF03
:100AC0002FEA81E0915020408040E1F700C0000013
:100AD00010923B01BCCF0E946E04E7CF8FEF97EDE1
:100AE0000197F1F700C00000B29B45C0809136012C
:100AF00090913701019690933701809336018230AF
:100B00009105E1F164F40197C8F001F5809172005C
:100B10009091730090936F0080936E0017C00397BD
:100B2000A9F41092370110923601809174009091CF
:100B3000750090936F0080936E0008C080917400E0
:100B40009091750090936F0080936E000E946E04E8
:100B5000B29B08C08FEF97ED0197F1F700C000003E
:100B6000B299F8CF9FEF2FEA81E09150204080406A
:100B7000E1F700C0000010923A016DCF8091700043
:100B80009091710090936F0080936E00DFCF95B3CA
:100B90009F70282F207F922B95BBAA98A89A94E04B
:100BA0009A95F1F7A898E8E2F2E03197F1F700C0E2
:100BB000000095B38295807F9F70892B85BBA89A92
:100BC000F4E0FA95F1F7A89889E995E10197F1F732
:100BD00000C0089595B39F70282F207F922B95BB5E
:100BE000AA9AA89A94E09A95F1F7A898E8E2F2E018
:100BF0003197F1F700C0000095B38295807F9F7018
:100C0000892B85BBA89AF4E0FA95F1F7A89889E9B1
:100C100095E10197F1F700C008958FEF84BB8FEF46
:100C200097ED0197F1F700C0000082E00E94C70530
:100C300088E20E94C7058CE00E94C70586E00E94FA
:100C4000C70581E00E94C70589E995E10197F1F7A1
:100C500000C00895CF93DF93C82FD92F88818115C5
:100C600031F021960E94EA0589918111FBCFDF9135
:100C7000CF910895CF93DF9300D0CDB7DEB74983EE
:100C80005A83813088F4603148F089819A810E94CA
:100C90002A060F900F90DF91CF9108956F70862FE5
:100CA00080680E94C705F1CF81F7603170F76F70DF
:100CB000862F806C0E94C705E8CFA1E21A2EAA1BDE
:100CC000BB1BFD010DC0AA1FBB1FEE1FFF1FA217FC
:100CD000B307E407F50720F0A21BB30BE40BF50BF9
:100CE000661F771F881F991F1A9469F76095709582
:100CF000809590959B01AC01BD01CF010895909521
:100D00008095709561957F4F8F4F9F4F08952F92DB
:100D10003F924F925F926F927F928F929F92AF928B
:100D2000BF92CF92DF92EF92FF920F931F93CF93D8
:100D3000DF93CDB7DEB7CA1BDB0B0FB6F894DEBF6F
:100D40000FBECDBF09942A88398848885F846E8495
:100D50007D848C849B84AA84B984C884DF80EE80DF
:100D6000FD800C811B81AA81B981CE0FD11D0FB6E8
:100D7000F894DEBF0FBECDBFED010895283008F016
:100D800027E03327DA01990F311D87FD9160009626
:100D90006105710539F432602E5F3D9330E32A9589
:100DA000E1F708959F3F30F080387105610509F043
:100DB0003C5F3C5F3D93913008F08068911DDF936C
:100DC000CF931F930F93FF92EF92192F987F9695D1
:100DD000E92F96959695E90FFF27E256FE4E992743
:100DE0003327EE24FF24A701E70105900894079418
:100DF00028F4360FE71EF81E491F511D660F771F96
:100E0000881F991F0694A1F70590079428F4E70E10
:100E1000F81E491F561FC11D770F881F991F661F97
:100E20000694A1F70590079428F4F80E491F561F61
:100E3000C71FD11D880F991F661F771F0694A1F742
:100E40000590079420F4490F561FC71FD81F990F0C
:100E5000661F771F881F0694A9F784911095177055
:100E600041F0D695C79557954795F794E7941A950D
:100E7000C1F7E4E4F1E1689415901591359165911D
:100E8000959105907FE27395E118F10A430B560B9B
:100E9000C90BD009C0F7E10CF11E431F561FC91F33
:100EA000D01D7EF4703311F48A95E6CFE89401509A
:100EB00030F0080F0AF40027021708F4202F2395BA
:100EC000022F7A3328F079E37D932A95E9F710C051
:100ED0007D932A9589F6069497956795379517958A
:100EE0001794E118F10A430B560BC90BD00998F07F
:100EF00023957E9173957A3308F070E37C932013E9
:100F0000B8F77E9170617D9330F0839571E37D93A6
:100F100070E32A95E1F71124EF90FF900F911F9154
:100F2000CF91DF91992787FD90950895FC01059059
:100F3000615070400110D8F7809590958E0F9F1FDB
:100F40000895FC016150704001900110D8F7809520
:100F500090958E0F9F1F08950F931F93CF93DF934C
:100F6000182F092FEB018B8181FD09C00FEF1FEFB7
:100F7000812F902FDF91CF911F910F91089582FFC4
:100F800014C02E813F818C819D81281739073CF444
:100F9000E881F981CF0101968883998310838E813E
:100FA0009F8101968E839F83E3CFE885F985812F0A
:100FB0000995892BA1F3DACFA0E0B0E0E2EEF7E0EB
:100FC0000C949706AE014B5F5F4FFA0161917191EE
:100FD000AF0180911C0190911D010E944D00E2E043
:100FE0000C94B3060F931F93CF93DF93E0911C01F2
:100FF000F0911D012381EC0100E010E021FD0EC005
:101000000FEF1FEFC801DF91CF911F910F9108954E
:1010100021960995892B11F00FEF1FEF88816091C0
:101020001C0170911D01DB011896ED91FD9181115C
:10103000EFCF8AE00995892B29F3E2CFAEE0B0E04B
:10104000E4E2F8E00C94970686E08C832B893C89D7
:1010500029833A838FEF9FE78D839E83AE01495E9C
:101060005F4F6D897E89CE0101960E944D00EF8110
:10107000F8852B893C89E20FF31F10822E96E2E05F
:101080000C94B306FA01AA27283051F1203181F1DE
:10109000E8946F936E7F6E5F7F4F8F4F9F4FAF4F80
:1010A000B1E03ED0B4E03CD0670F781F891F9A1F93
:1010B000A11D680F791F8A1F911DA11D6A0F711D47
:1010C000811D911DA11D20D009F468943F912AE053
:1010D000269F11243019305D3193DEF6CF0108953B
:1010E000462F4770405D4193B3E00FD0C9F7F6CF6C
:1010F000462F4F70405D4A3318F0495D31FD405234
:10110000419302D0A9F7EACFB4E0A69597958795C9
:1011100077956795BA95C9F70097610571050895A8
:101120009B01AC010A2E0694579547953795279554
:10113000BA95C9F7620F731F841F951FA01D0895EC
:10114000F894FFCF00407A10F35A00A0724E1809AD
:101150000010A5D4E80000E87648170000E40B541E
:10116000020000CA9A3B000000E1F50500008096ED
:101170009800000040420F000000A086010000001F
:10118000102700000000E8030000000064000000D9
:1011900000000A00000000000100000000002C76A2
:1011A000D888DC674F0823DFC1DFAE59E1B1B796BD
:1011B000E5E3E453C63AE651997696E8E6C284261A
:1011C000EB898C9B62ED407C6FFCEFBC9C9F40F2F6
:1011D000BAA56FA5F490055A2AF75C936B6CF96772
:1011E0006DC11BFCE0E40D47FEF520E6B500D0ED37
:1011F000902E0300943577050080841E080000209F
:101200004E0A000000C80C333333330F986E12833C
:101210001141EF8D2114893BE65516CFFEE6DB1810
:10122000D1844B381BF77C1D901DA4BBE4242032D5
:0E12300084725E228100C9F124ECA1E53D2705
:10123E000000000300000000D603D10300000001EF
:10124E0000030002000141424F5645002535732030
:10125E00205448523A202533640042454C4F5700E3
:10126E004144433A20253464004144433A253464D2
:10127E002053544154453A2535730D0A0043757277
:10128E0072656E74205468726573686F6C643A2070
:10129E002534640D0A0054657374696E67205541D8
:1012AE00525421005072696E74696E67206C6F6EB5
:1012BE006720616E6420666C6F6174206E756D625E
:1012CE006572730D004C6F6E672076616C75653AB2
:1012DE0020256C752C20466C6F61742076616C75C0
:0A12EE00653A202566200D0A000075
:00000001FF
