:100000000C942A000C947D000C9447000C9447003B
:100010000C9447000C9447000C9447000C9470001B
:100020000C9447000C9447000C9447000C94470034
:100030000C9447000C9447000C9447000C94470024
:100040000C9447000C9447000C9447000C94470014
:100050000C94470011241FBECFE5D8E0DEBFCDBF12
:1000600010E0A0E6B0E0EAE2F2E002C005900D92F6
:10007000AA3AB107D9F720E0AAEAB0E001C01D9280
:10008000AB3AB207E1F70E94B3000C9413010C9451
:10009000000010BC87E489B988E08AB986E880BD91
:1000A00008955D9BFECF8CB90895CF93DF93C82F41
:1000B000D92F8881811531F021960E9451008991B4
:1000C0008111FBCFDF91CF9108951FBC8DE08EBDD4
:1000D00087E195E19BBD8ABD89B7806189BF08959D
:1000E0008F938FB78F939F9388B391E0892788BBB5
:1000F0009F918F918FBF8F9118951F920F920FB67E
:100100000F9211242F933F934F935F936F937F939D
:100110008F939F93AF93BF93EF93FF938091AA0028
:10012000811589F0FF91EF91BF91AF919F918F91D0
:100130007F916F915F914F913F912F910F900FBEE3
:100140000F901F90189581E08093AA000FB6F89445
:10015000A89581B5886181BD11BC0FBE80E690E095
:100160000E945500DFCFB89A8A98929A85B782602C
:1001700085BF8BB780648BBF0E9449000E946500D9
:10018000789404B603FE03C084B7877F84BF88E7F2
:1001900090E00E94550088E19FE00FB6F894A89582
:1001A00081BD0FBE91BDD8E1CFE08091AA0081153D
:1001B000E1F32FEF8FEB91E2215080409040E1F787
:1001C00000C000002FEF8FEB91E221508040904063
:1001D000E1F700C000002FEF8FEB91E2215080404B
:1001E0009040E1F700C000002FEF8FEB91E221502B
:1001F00080409040E1F700C000002FEF8FEB91E2CC
:10020000215080409040E1F700C0000088E990E074
:100210000E9455000FB6F894A895D1BD0FBEC1BD80
:0A0220001092AA00C2CFF894FFCF9D
:10022A005744542064697361626C65642062792062
:10023A00757365722E0D0A0053797374656D207398
:10024A00746172746564202D2057445420656E6170
:10025A00626C65642E0D0A005744542072652D6540
:0A026A006E61626C65642E0D0A00DF
:00000001FF
